:020000040000FA
:06000000F86AF76A03D064
:0800080004EF04F00F0EC16EBD
:0200100077D2A5
:02001600C5D053
:040018000CEF04F0F5
:04001C00303132331A
:10002000343536373839414243444546B979379EED
:080030004786C861406EDE8DB9
:0800380012010002000000406B
:10004000000000002200010200010902220001015B
:1000500000803209040000010300000009210101B1
:10006000000122170007058103400001050C09006B
:10007000A1020900954075088100090095407508A6
:100080009100C0040309040E03440069006F006C72
:050090000061006E009C
:02009500000069
:08009800ADD8A688B4D8400ED3
:1000A000F626000EF722352FF8D712009FD800EE63
:1000B00076F00900F5CFEEFF122FFBD72BEF03F000
:1000C00044EC03F093D800EE36F00A00EECFF5FFD3
:1000D0000F00132B13BB97D8122FF8D7136793D8A1
:1000E000120015D800EE76F00900F5CFEEFF122FC2
:1000F000FBD7F86A12000BD800EE36F0A68883D83A
:10010000EECFF5FF0D00122FFBD77DD8F2D7200ED2
:10011000F86EF76AF66A080E126F756F120015D83E
:1001200000EE36F0EECFA8FF6FD8A6B2FED7A92A10
:10013000122FF8D7120009D800EE76F0A680A8CFCB
:10014000EEFFA92A122FFAD712003251A96E3551AB
:10015000126F756FA66A120030511BE0706F31C0CC
:1001600071F014A138D83051306BE84E9FD7E84E6B
:10017000A7D7E84E91D7E84E0DD0E84E14D0E84E00
:10018000B0D7E84EB8D7E84ED6D7E84EC8D7FF0E5E
:10019000706F1200000E726F020E736F020E746F9A
:1001A000120019D801D014D86D96126BE86AE82EA7
:1001B000FED7122FFBD7FF007FDA00EE70F015EEAE
:1001C00040F0400EEFCFE6FFEE6AE82EFBD753D2A9
:1001D000A50E146B02D05A0E1481A86E000EA96EE3
:1001E000A69E12D8A6B2FED7A694120035513C0B9B
:1001F000126F756F3351F76E736F3251F66E726F07
:100200001F0B136F1200A68EA69CA684550EA76E18
:10021000AA0EA76EA682136B1200140E6F6E696A87
:10022000080E6D6E6DBAFED7686A110E696E020E09
:10023000176F1200686A7B0E696E6E6A160E706E1A
:1002400068A602D06896FCD76D982AEC01F0030EE0
:10025000176F1200000E186F24EE00F0400EDC6ED7
:10026000100EDC6E040EDC6E83E9880EDF6E84E80F
:10027000000EDF6E12006C50780B1AE110EE24F0C5
:1002800024EE10F0080EDECFE6FFE82EFCD724EEB9
:1002900000F0000E6C6208D0DF503C0B340802E125
:1002A00067D8120006D81200040E6C6212000CD837
:1002B0001200020E186306D021D8C80EDFAC880EDB
:1002C000DF6E1200C7DF120024EE04F0DFBEFED79F
:1002D000040E176308D026516E6EFF0BD8A4050ECE
:1002E000D8B4030E176F010E186306D019D8C80EC4
:1002F000DFAC880E046F1200ADDF1200DC502C6FF3
:100300001B2714EE50F01DC0EAFF1CC0E9FFE6CF2A
:10031000EEFF2C2FFCD7E9CF1CF0EACF1DF0120026
:10032000400E1B6101D01B512D6FDF92DF90DC6E00
:100330001B5F04EE50F022B10FD02D5118E01FC00A
:10034000E2FF1EC0E1FFE6CFEEFF2D2FFCD7E1CF8D
:100350001EF0E2CF1FF00BD0F86AF76A1E51F66E5E
:100360000900F5CFEEFF2D2FFBD7F6CF1EF01200C0
:10037000000E186F236B1B6B2451600BD8B404D094
:100380002008D8B477D078D0255117E0E84E22D095
:10039000E806E84E1FD0E806E84E1DD0E84E1FD014
:1003A000E84E42D0E84E41D0E84E48D0E84E53D017
:1003B000E84E5AD0E84E5CD05FD004EE50F0EE6AC2
:1003C000EE6A500E1E6F040E1F6F000E020E1B6FA2
:1003D00023814FD04ED02381040E176F4AD0238142
:1003E0002751E84E0AD0E84E0CD0E84E0ED0E84E29
:1003F00016D0E84E15D0236B3CD0380E1E6F120E6F
:1004000010D04A0E1E6F220E0CD0265104E1830E2E
:100410001E6F040E03D0870E1E6F160E02D0EBD790
:10042000EAD71B6F228125D024D02381190E1E6F9D
:10043000000E1F6F2291010E1B6F1BD02381716A6A
:100440002651196FFF0B04E0060E176FA5D802D0D6
:10045000050E176F0ED023811A0E1E6F000E1F6F30
:100460002291010E1B6F05D0238126C01AF001D006
:1004700000D003D0ADD804D035D023B101D0FAD705
:100480006D9823B101D02ED024AF1CD02A511B610E
:100490001B6F24EE04F044DF010E186F24EE03F00E
:1004A000040EDD6E100EDD6E400EDD6E800EDD6E14
:1004B00024EE07F0040EDD6E500EDD6E81E9C80EED
:1004C000DD6E0FD0020E186F24EE05F0DD6AC80E47
:1004D000DD6E040EDD6E500EDD6E400EDD6EC80E5C
:1004E000DD6E120024EE03F0040EDD6E100EDD6EE4
:1004F000400EDD6E840EDF6E84E8DF6E6D981200B4
:10050000000EA96E010EA66E5A0EA85C06E0966853
:1005100084B000EF04F001D0FF0096908D90146B32
:100520007CDE04D819DE44D8FCD7FF0068A405D0CF
:1005300069A403D06D92699468946DB2120068A0AA
:1005400003D069A001D076DE68A809D069A807D0D9
:10055000698468986D82A19AA08A0300A09A68A213
:1005600003D069A201D0689C68AA07D069AA05D007
:1005700070A002D06FDE7090689A68A203D069A262
:1005800001D06892020E1765120068A604D069A611
:1005900002D071DE689612001A0E716E0401400ED0
:1005A0000E6F050E0F6F400E0C6F0001706B120086
:1005B00070510DE024EE0CF0DEBE09D0FDDD400EE2
:1005C000DD6E400EDF16400EDF1A880EDF121200BD
:1005D00024511F0B0108D8A4120028510008D8A4E8
:1005E00012002551060819E12751DF0F05E0E84EFA
:1005F00009D0E84E0DD011D05C0E1E6F000E1F6F9B
:10060000090E07D06C0E1E6F000E1F6F170E01D063
:1006100021D01B6F238122811DD02451600B200823
:1006200001E012002551E84E0BD0E84E13D0E84E01
:1006300011D0FA0F07E0E84E0DD0E84E0BD00AD0EB
:10064000000E05D0300E1C6F000E1D6F02D01B6F08
:060650002291238112003B
:0A0656002BD820EE76F010EE7AF0BB
:1006600034D83FD84FD82C0EABD840D84BD80C2F0D
:10067000F8D732D8F5E10EC0E1FF0FC0E2FF10C09D
:10068000D9FF11C0DAFF120012D810EE36F020EEBA
:100690003AF01BD8340E94D829D838D8300E90D8D8
:1006A00020D834D80C2FF8D717D8F3E1E4D7F76A5D
:1006B0003551380B356F0D6FE1CF0EF0E2CF0FF0F3
:1006C000D9CF10F0DACF11F01200006B016B026B82
:1006D000036B400E0C6F120048E888E8080E0D5FAF
:1006E000120044E984E806D80051120044E884E985
:1006F00001D812000FD853D848D80151E840E8403B
:10070000E840120055D84BD82DD8120051D847D800
:1007100033D81200DFCF04F0DECF08F0DFCF05F0D2
:10072000DECF09F0DFCF06F0DECF0AF0DFCF07F033
:10073000DECF0BF084E900EE04F0040ED890EE3624
:10074000EE36EE36EE3604E9E82EF8D700EE0BF082
:10075000050ED890ED32ED32ED32ED3204E8E82EA0
:10076000F8D712000451E6260551E6220651E6228A
:100770000751E62244E912000451E65E0551E65AAB
:100780000651E65A0751E65AF5D7DE500427DE50E7
:100790000523DE500623DE50072384E912000851AA
:1007A000041B0951051B0A51061B0B51071B1200A4
:1007B000030BE846E8461C0FF66E00EE08F003D087
:1007C000F66E00EE00F009000051F524EE6E09000F
:1007D0000151F520EE6E09000251F520EE6E090080
:0807E0000351F520EE6E12003A
:02080000FFD720
:020000040030CA
:0100000023DC
:010001004EB0
:0100020038C5
:010003001EDE
:010005008377
:01000600C138
:0100080008EF
:010009008076
:01000A000FE6
:01000B008074
:01000C000FE4
:01000D0000F2
:0400000500000000F7
:00000001FF
